{"abi":[{"type":"constructor","inputs":[{"name":"owner_","type":"address","internalType":"address"}],"stateMutability":"nonpayable"},{"type":"function","name":"MAX_THOUGHT_SPEC_BYTES","inputs":[],"outputs":[{"name":"","type":"uint256","internalType":"uint256"}],"stateMutability":"view"},{"type":"function","name":"isRegisteredThoughtSpec","inputs":[{"name":"specId","type":"bytes32","internalType":"bytes32"},{"name":"specHash","type":"bytes32","internalType":"bytes32"}],"outputs":[{"name":"","type":"bool","internalType":"bool"}],"stateMutability":"view"},{"type":"function","name":"isValidThoughtSpecName","inputs":[{"name":"specName","type":"string","internalType":"string"}],"outputs":[{"name":"","type":"bool","internalType":"bool"}],"stateMutability":"pure"},{"type":"function","name":"latestThoughtSpecId","inputs":[],"outputs":[{"name":"","type":"bytes32","internalType":"bytes32"}],"stateMutability":"view"},{"type":"function","name":"owner","inputs":[],"outputs":[{"name":"","type":"address","internalType":"address"}],"stateMutability":"view"},{"type":"function","name":"registerThoughtSpec","inputs":[{"name":"specName","type":"string","internalType":"string"},{"name":"ref","type":"string","internalType":"string"},{"name":"specData","type":"bytes","internalType":"bytes"}],"outputs":[{"name":"specId","type":"bytes32","internalType":"bytes32"},{"name":"specHash","type":"bytes32","internalType":"bytes32"},{"name":"pointer","type":"address","internalType":"address"}],"stateMutability":"nonpayable"},{"type":"function","name":"specBytes","inputs":[{"name":"specId","type":"bytes32","internalType":"bytes32"}],"outputs":[{"name":"","type":"bytes","internalType":"bytes"}],"stateMutability":"view"},{"type":"function","name":"specMeta","inputs":[{"name":"specId","type":"bytes32","internalType":"bytes32"}],"outputs":[{"name":"specHash","type":"bytes32","internalType":"bytes32"},{"name":"ref","type":"string","internalType":"string"},{"name":"pointer","type":"address","internalType":"address"},{"name":"byteLength","type":"uint32","internalType":"uint32"},{"name":"registeredAt","type":"uint64","internalType":"uint64"},{"name":"exists","type":"bool","internalType":"bool"}],"stateMutability":"view"},{"type":"function","name":"specText","inputs":[{"name":"specId","type":"bytes32","internalType":"bytes32"}],"outputs":[{"name":"","type":"string","internalType":"string"}],"stateMutability":"view"},{"type":"function","name":"thoughtSpecBytes","inputs":[{"name":"specId","type":"bytes32","internalType":"bytes32"}],"outputs":[{"name":"","type":"bytes","internalType":"bytes"}],"stateMutability":"view"},{"type":"function","name":"thoughtSpecCount","inputs":[],"outputs":[{"name":"","type":"uint256","internalType":"uint256"}],"stateMutability":"view"},{"type":"function","name":"thoughtSpecExists","inputs":[{"name":"specId","type":"bytes32","internalType":"bytes32"}],"outputs":[{"name":"","type":"bool","internalType":"bool"}],"stateMutability":"view"},{"type":"function","name":"thoughtSpecIdAt","inputs":[{"name":"index","type":"uint256","internalType":"uint256"}],"outputs":[{"name":"","type":"bytes32","internalType":"bytes32"}],"stateMutability":"view"},{"type":"function","name":"thoughtSpecIdOfName","inputs":[{"name":"specName","type":"string","internalType":"string"}],"outputs":[{"name":"","type":"bytes32","internalType":"bytes32"}],"stateMutability":"pure"},{"type":"function","name":"thoughtSpecMeta","inputs":[{"name":"specId","type":"bytes32","internalType":"bytes32"}],"outputs":[{"name":"exists","type":"bool","internalType":"bool"},{"name":"specName","type":"string","internalType":"string"},{"name":"specHash","type":"bytes32","internalType":"bytes32"},{"name":"ref","type":"string","internalType":"string"},{"name":"pointer","type":"address","internalType":"address"},{"name":"byteLength","type":"uint32","internalType":"uint32"},{"name":"registeredAt","type":"uint64","internalType":"uint64"}],"stateMutability":"view"},{"type":"function","name":"thoughtSpecText","inputs":[{"name":"specId","type":"bytes32","internalType":"bytes32"}],"outputs":[{"name":"","type":"string","internalType":"string"}],"stateMutability":"view"},{"type":"function","name":"validateSpec","inputs":[{"name":"specId","type":"bytes32","internalType":"bytes32"}],"outputs":[{"name":"","type":"bool","internalType":"bool"}],"stateMutability":"view"},{"type":"function","name":"validateThoughtSpec","inputs":[{"name":"specId","type":"bytes32","internalType":"bytes32"},{"name":"specHash","type":"bytes32","internalType":"bytes32"}],"outputs":[{"name":"","type":"bool","internalType":"bool"}],"stateMutability":"view"},{"type":"event","name":"ThoughtSpecRegistered","inputs":[{"name":"specId","type":"bytes32","indexed":true,"internalType":"bytes32"},{"name":"specHash","type":"bytes32","indexed":true,"internalType":"bytes32"},{"name":"specName","type":"string","indexed":false,"internalType":"string"},{"name":"ref","type":"string","indexed":false,"internalType":"string"},{"name":"pointer","type":"address","indexed":false,"internalType":"address"},{"name":"byteLength","type":"uint32","indexed":false,"internalType":"uint32"}],"anonymous":false},{"type":"error","name":"ContractCodeStorageDataTooLarge","inputs":[{"name":"actual","type":"uint256","internalType":"uint256"},{"name":"max","type":"uint256","internalType":"uint256"}]},{"type":"error","name":"ContractCodeStorageInvalidPointer","inputs":[{"name":"pointer","type":"address","internalType":"address"}]},{"type":"error","name":"ContractCodeStorageWriteFailed","inputs":[]},{"type":"error","name":"EmptyThoughtSpec","inputs":[]},{"type":"error","name":"InvalidThoughtSpecName","inputs":[{"name":"specName","type":"string","internalType":"string"}]},{"type":"error","name":"InvalidThoughtSpecPair","inputs":[{"name":"specId","type":"bytes32","internalType":"bytes32"},{"name":"specHash","type":"bytes32","internalType":"bytes32"}]},{"type":"error","name":"NotOwner","inputs":[]},{"type":"error","name":"OwnerZeroAddress","inputs":[]},{"type":"error","name":"ThoughtSpecAlreadyRegistered","inputs":[{"name":"specId","type":"bytes32","internalType":"bytes32"}]},{"type":"error","name":"ThoughtSpecHashMismatch","inputs":[{"name":"specId","type":"bytes32","internalType":"bytes32"},{"name":"expected","type":"bytes32","internalType":"bytes32"},{"name":"actual","type":"bytes32","internalType":"bytes32"}]},{"type":"error","name":"ThoughtSpecNotFound","inputs":[{"name":"specId","type":"bytes32","internalType":"bytes32"}]},{"type":"error","name":"ThoughtSpecPointerInvalid","inputs":[{"name":"specId","type":"bytes32","internalType":"bytes32"}]},{"type":"error","name":"ThoughtSpecTooLarge","inputs":[{"name":"length","type":"uint256","internalType":"uint256"},{"name":"maxLength","type":"uint256","internalType":"uint256"}]}],"bytecode":{"object":"0x60a034608157601f61133f38819003918201601f19168301916001600160401b03831184841017608557808492602094604052833981010312608157516001600160a01b038116808203608157156072576080526040516112a5908161009a82396080518181816102df01526106760152f35b630962257960e11b5f5260045ffd5b5f80fd5b634e487b7160e01b5f52604160045260245ffdfe60806040526004361015610011575f80fd5b5f3560e01c806305bfebd2146101255780630ba5c595146101205780632297db941461011b5780632776cffb146101165780633804e610146101115780634580f0a81461010c5780637a332761146100f35780638da5cb5b1461010757806397a360e1146101025780639c17cc6d146100fd5780639cd29f7f146100f3578063a4acda9d146100f3578063b94c56eb146100f8578063bbcdd917146100f3578063e6a82af0146100ee578063f0375d3f146100e9578063f0485c0f146100e45763f6dce7a7146100df575f80fd5b6108ed565b6108cb565b610846565b6107ec565b61062e565b610797565b61077a565b610707565b610661565b610600565b610566565b610526565b610266565b6101ee565b3461014d57602036600319011261014d576020610143600435610931565b6040519015158152f35b5f80fd5b634e487b7160e01b5f52604160045260245ffd5b90601f801991011681019081106001600160401b0382111761018657604052565b610151565b6040519061019b61010083610165565b565b6001600160401b03811161018657601f01601f191660200190565b9291926101c48261019d565b916101d26040519384610165565b82948184528183011161014d578281602093845f960137010152565b3461014d57602036600319011261014d576004356001600160401b03811161014d573660238201121561014d5761014361023460209236906024816004013591016101b8565b610a57565b9181601f8401121561014d578235916001600160401b03831161014d576020838186019501011161014d57565b3461014d57606036600319011261014d576004356001600160401b03811161014d57610296903690600401610239565b906024356001600160401b03811161014d576102b6903690600401610239565b9190926044356001600160401b03811161014d576102d8903690600401610239565b90949092907f00000000000000000000000000000000000000000000000000000000000000006001600160a01b031633036105175761032261031e6102343686866101b8565b1590565b6104f65783156104e757614e2084116104cd576103403684846101b8565b602081519101209461036361035c875f525f60205260405f2090565b5460ff1690565b6104b95761038d61038861037836888b6101b8565b60208151910120988736916101b8565b611189565b9461039786611235565b6020815191012088810361049d575093879361046d8894887faa8c87046fb10900e6fb9fe81eee10c5a0642699bc6994786e0d84d79cb128c39563ffffffff6104999b9a16926104586103e861018b565b600181526103f7368a8a6101b8565b60208201528a60408201528b60608201526104133685856101b8565b60808201526001600160a01b03851660a082015263ffffffff861660c0820152426001600160401b031660e08201526104538b5f525f60205260405f2090565b610d5a565b61046189610e35565b60405196879687610e83565b0390a36040805193845260208401949094526001600160a01b0316928201929092529081906060820190565b0390f35b639ff5a14160e01b5f526004889052602489905260445260645ffd5b63e76e0e2560e01b5f52600486905260245ffd5b63093b109160e21b5f526004849052614e2060245260445ffd5b6377d8eb3160e11b5f5260045ffd5b5061051360405192839263935d535160e01b845260048401610bf7565b0390fd5b6330cd747160e01b5f5260045ffd5b3461014d575f36600319011261014d576020604051614e208152f35b805180835260209291819084018484015e5f828201840152601f01601f1916010190565b3461014d57602036600319011261014d576004355f525f60205260405f206003810154600582015461059f600460ff8554169401610eca565b926001600160401b036105c4604051958695865260c0602087015260c0860190610542565b6001600160a01b038416604086015260a084811c63ffffffff16606087015260c09490941c919091166080850152901515918301919091520390f35b3461014d57602036600319011261014d576004355f525f602052602060ff60405f2054166040519015158152f35b3461014d57602036600319011261014d5761049961064d600435610f68565b604051918291602083526020830190610542565b3461014d575f36600319011261014d576040517f00000000000000000000000000000000000000000000000000000000000000006001600160a01b03168152602090f35b959060c0959897936001600160401b03956106d863ffffffff956106eb9415158b5260e060208c015260e08b0190610542565b9160408a015288820360608a0152610542565b6001600160a01b0390981660808701521660a085015216910152565b3461014d57602036600319011261014d576004355f525f60205260405f2060ff815416906104996003820154916005810154610751600461074a60018501610eca565b9301610eca565b60405195869560c084901c9460a085901c63ffffffff16946001600160a01b03169392886106a5565b3461014d575f36600319011261014d576020600154604051908152f35b3461014d57602036600319011261014d576004356001548110156107e75760209060015f527fb10e2d527612073b26eecdfd717e6a320cf44b4afac2b0732d9fcbe2b7fa0cf60154604051908152f35b610a25565b3461014d57604036600319011261014d576020600435602435905f525f825260405f209060ff825416918261083c575b8261082e575b50506040519015158152f35b600301541490505f80610822565b811515925061081c565b3461014d57602036600319011261014d576004356001600160401b03811161014d57610876903690600401610239565b906108856102343684846101b8565b156108af57610899906104999236916101b8565b8051602091820120604051908152918291820190565b61051360405192839263935d535160e01b845260048401610bf7565b3461014d575f36600319011261014d5760206108e561103a565b604051908152f35b3461014d57604036600319011261014d576020610143602435600435611084565b9081602091031261014d5751801515810361014d5790565b6040513d5f823e3d90fd5b5f818152602081905260409020805460ff16156109b1576003015460405163f6dce7a760e01b815260048101929092526024820152602081604481305afa9081156109ac575f91610980575090565b6109a2915060203d6020116109a5575b61099a8183610165565b81019061090e565b90565b503d610990565b610926565b50505f90565b604051906109c6604083610165565b60098252682a2427aaa3a42a173b60b91b6020830152565b604051906109ed604083610165565b60038252620b9b5960ea1b6020830152565b634e487b7160e01b5f52601160045260245ffd5b91908201809211610a2057565b6109ff565b634e487b7160e01b5f52603260045260245ffd5b9081518110156107e7570160200190565b91908203918211610a2057565b610a5f6109b7565b610a676109de565b918051610a778351855190610a13565b1015610bad575f5b8251811015610ae157610aa3610a958284610a39565b516001600160f81b03191690565b610ac0610ab3610a958487610a39565b6001600160f81b03191690565b6001600160f81b031990911603610ad957600101610a7f565b505050505f90565b50919091610af28151835190610a4a565b5f5b8351811015610b4557610b13610a95610b0d8385610a13565b85610a39565b610b23610ab3610a958488610a39565b6001600160f81b031990911603610b3c57600101610af4565b50505050505f90565b50929091505182811015610bad57600360fc1b6001600160f81b0319610b6e610a958486610a39565b1614610bad575b828110610b8457505050600190565b600360fc1b610b99610ab3610a958486610a39565b108015610bb4575b610bad57600101610b75565b5050505f90565b50603960f81b6001600160f81b0319610bd0610a958486610a39565b1611610ba1565b908060209392818452848401375f828201840152601f01601f1916010190565b9160206109a2938181520191610bd7565b90600182811c92168015610c36575b6020831014610c2257565b634e487b7160e01b5f52602260045260245ffd5b91607f1691610c17565b601f8211610c4d57505050565b5f5260205f20906020601f840160051c83019310610c85575b601f0160051c01905b818110610c7a575050565b5f8155600101610c6f565b9091508190610c66565b91909182516001600160401b03811161018657610cb681610cb08454610c08565b84610c40565b6020601f8211600114610cf5578190610ce69394955f92610cea575b50508160011b915f199060031b1c19161790565b9055565b015190505f80610cd2565b601f19821690610d08845f5260205f2090565b915f5b818110610d4257509583600195969710610d2a575b505050811b019055565b01515f1960f88460031b161c191690555f8080610d20565b9192602060018192868b015181550194019201610d0b565b90610e1560e0600561019b948451151560ff801983541691151516178155610d89602086015160018301610c8f565b6040850151600282015560608501516003820155610dae608086015160048301610c8f565b60a0850151910180546001600160a01b0319166001600160a01b0390921691909117815592610e07610de760c083015163ffffffff1690565b855463ffffffff60a01b191660a09190911b63ffffffff60a01b16178555565b01516001600160401b031690565b81546001600160c01b031660c09190911b6001600160c01b031916179055565b6001546801000000000000000081101561018657600181016001556001548110156107e75760015f527fb10e2d527612073b26eecdfd717e6a320cf44b4afac2b0732d9fcbe2b7fa0cf60155565b9496959192606094610ea6610eb49363ffffffff9660808a5260808a0191610bd7565b918783036020890152610bd7565b6001600160a01b03909616604085015216910152565b9060405191825f825492610edd84610c08565b8084529360018116908115610f465750600114610f02575b5061019b92500383610165565b90505f9291925260205f20905f915b818310610f2a57505090602061019b928201015f610ef5565b6020919350806001915483858901015201910190918492610f11565b90506020925061019b94915060ff191682840152151560051b8201015f610ef5565b805f525f60205260405f209060ff825416156110285760058201546001600160a01b0381168015801561101c575b61100857610fa390611235565b92600384516020860120910154808203610fee575050825190610fd39060a01c63ffffffff165b63ffffffff1690565b03610fdc575090565b635edadb2360e11b5f5260045260245ffd5b639ff5a14160e01b5f52600484905260245260445260645ffd5b635edadb2360e11b5f52600483905260245ffd5b506001813b1115610f96565b637b4ab91f60e11b5f5260045260245ffd5b600154801561107f575f198101818111610a20578111156107e75760015f527fb10e2d527612073b26eecdfd717e6a320cf44b4afac2b0732d9fcbe2b7fa0cf5015490565b505f90565b611095905f525f60205260405f2090565b6110a361031e825460ff1690565b8015611135575b8015611127575b8015611112575b6109b15760050154906001600160a01b0382166001813b1115610bad576110de90611235565b805190926110f49060a01c63ffffffff16610fca565b81149283611103575b50505090565b602001201490505f80806110fd565b5060058101546001600160a01b0316156110b8565b5081600382015414156110b1565b5081156110aa565b805191908290602001825e015f815290565b606160f81b81526001600160f01b031990911660018201526880600c6000396000f360b81b60038201526109a291600c919091019061113d565b8051615fff811161121d57506040515f6020820152906111c19082906111b390602183019061113d565b03601f198101835282610165565b6111b36111f86111e66111d6845161ffff1690565b60f01b6001600160f01b03191690565b9260405192839160208301958661114f565b51905ff0906001600160a01b0382161561120e57565b63386d2c8960e21b5f5260045ffd5b63d940b45560e01b5f52600452615fff60245260445ffd5b906001600160a01b038216801561129357823b90600182111561129357505f198101908111610a205760016112698261019d565b6112766040519182610165565b8281526112828361019d565b602082019190601f1901368337943c565b639bffebcb60e01b5f5260045260245ffd","linkReferences":{}},"methodIdentifiers":{"MAX_THOUGHT_SPEC_BYTES()":"2776cffb","isRegisteredThoughtSpec(bytes32,bytes32)":"e6a82af0","isValidThoughtSpecName(string)":"0ba5c595","latestThoughtSpecId()":"f0485c0f","owner()":"8da5cb5b","registerThoughtSpec(string,string,bytes)":"2297db94","specBytes(bytes32)":"bbcdd917","specMeta(bytes32)":"3804e610","specText(bytes32)":"7a332761","thoughtSpecBytes(bytes32)":"a4acda9d","thoughtSpecCount()":"9c17cc6d","thoughtSpecExists(bytes32)":"4580f0a8","thoughtSpecIdAt(uint256)":"b94c56eb","thoughtSpecIdOfName(string)":"f0375d3f","thoughtSpecMeta(bytes32)":"97a360e1","thoughtSpecText(bytes32)":"9cd29f7f","validateSpec(bytes32)":"05bfebd2","validateThoughtSpec(bytes32,bytes32)":"f6dce7a7"},"id":3}