{"abi":[{"type":"constructor","inputs":[{"name":"pathNft_","type":"address","internalType":"address"},{"name":"thoughtSpecRegistry_","type":"address","internalType":"address"},{"name":"colorFont_","type":"address","internalType":"address"}],"stateMutability":"nonpayable"},{"type":"function","name":"ERR_EMPTY_TEXT","inputs":[],"outputs":[{"name":"","type":"uint8","internalType":"uint8"}],"stateMutability":"view"},{"type":"function","name":"ERR_INVALID_CHARACTER","inputs":[],"outputs":[{"name":"","type":"uint8","internalType":"uint8"}],"stateMutability":"view"},{"type":"function","name":"ERR_NONE","inputs":[],"outputs":[{"name":"","type":"uint8","internalType":"uint8"}],"stateMutability":"view"},{"type":"function","name":"ERR_NOT_CANONICAL","inputs":[],"outputs":[{"name":"","type":"uint8","internalType":"uint8"}],"stateMutability":"view"},{"type":"function","name":"ERR_RAW_RETURN_TOO_LONG","inputs":[],"outputs":[{"name":"","type":"uint8","internalType":"uint8"}],"stateMutability":"view"},{"type":"function","name":"ERR_TEXT_TOO_LONG","inputs":[],"outputs":[{"name":"","type":"uint8","internalType":"uint8"}],"stateMutability":"view"},{"type":"function","name":"MAX_PROVENANCE_BYTES","inputs":[],"outputs":[{"name":"","type":"uint256","internalType":"uint256"}],"stateMutability":"view"},{"type":"function","name":"MAX_RAW_RETURN_BYTES","inputs":[],"outputs":[{"name":"","type":"uint256","internalType":"uint256"}],"stateMutability":"view"},{"type":"function","name":"MAX_TEXT_BYTES","inputs":[],"outputs":[{"name":"","type":"uint256","internalType":"uint256"}],"stateMutability":"view"},{"type":"function","name":"PATH_MOVEMENT_THOUGHT","inputs":[],"outputs":[{"name":"","type":"bytes32","internalType":"bytes32"}],"stateMutability":"view"},{"type":"function","name":"approve","inputs":[{"name":"approved","type":"address","internalType":"address"},{"name":"tokenId","type":"uint256","internalType":"uint256"}],"outputs":[],"stateMutability":"nonpayable"},{"type":"function","name":"authorOf","inputs":[{"name":"tokenId","type":"uint256","internalType":"uint256"}],"outputs":[{"name":"","type":"address","internalType":"address"}],"stateMutability":"view"},{"type":"function","name":"balanceOf","inputs":[{"name":"account","type":"address","internalType":"address"}],"outputs":[{"name":"","type":"uint256","internalType":"uint256"}],"stateMutability":"view"},{"type":"function","name":"colorFont","inputs":[],"outputs":[{"name":"","type":"address","internalType":"address"}],"stateMutability":"view"},{"type":"function","name":"colorFontData","inputs":[],"outputs":[{"name":"","type":"string","internalType":"string"}],"stateMutability":"view"},{"type":"function","name":"colorFontGlyph","inputs":[{"name":"index","type":"uint8","internalType":"uint8"}],"outputs":[{"name":"letter","type":"string","internalType":"string"},{"name":"ordinal","type":"uint8","internalType":"uint8"},{"name":"aliasTerm","type":"string","internalType":"string"},{"name":"hexColor","type":"string","internalType":"string"}],"stateMutability":"view"},{"type":"function","name":"colorFontGlyphOf","inputs":[{"name":"letter_","type":"bytes1","internalType":"bytes1"}],"outputs":[{"name":"ordinal","type":"uint8","internalType":"uint8"},{"name":"aliasTerm","type":"string","internalType":"string"},{"name":"hexColor","type":"string","internalType":"string"}],"stateMutability":"view"},{"type":"function","name":"colorFontHash","inputs":[],"outputs":[{"name":"","type":"bytes32","internalType":"bytes32"}],"stateMutability":"view"},{"type":"function","name":"colorFontId","inputs":[],"outputs":[{"name":"","type":"string","internalType":"string"}],"stateMutability":"view"},{"type":"function","name":"colorFontLength","inputs":[],"outputs":[{"name":"","type":"uint8","internalType":"uint8"}],"stateMutability":"view"},{"type":"function","name":"colorFontVersion","inputs":[],"outputs":[{"name":"","type":"string","internalType":"string"}],"stateMutability":"view"},{"type":"function","name":"getApproved","inputs":[{"name":"tokenId","type":"uint256","internalType":"uint256"}],"outputs":[{"name":"approved","type":"address","internalType":"address"}],"stateMutability":"view"},{"type":"function","name":"isApprovedForAll","inputs":[{"name":"owner","type":"address","internalType":"address"},{"name":"operator","type":"address","internalType":"address"}],"outputs":[{"name":"approved","type":"bool","internalType":"bool"}],"stateMutability":"view"},{"type":"function","name":"isCanonicalText","inputs":[{"name":"text","type":"string","internalType":"string"}],"outputs":[{"name":"","type":"bool","internalType":"bool"}],"stateMutability":"pure"},{"type":"function","name":"isThoughtMinted","inputs":[{"name":"textHash","type":"bytes32","internalType":"bytes32"}],"outputs":[{"name":"","type":"bool","internalType":"bool"}],"stateMutability":"view"},{"type":"function","name":"mint","inputs":[{"name":"rawText","type":"string","internalType":"string"},{"name":"pathId","type":"uint256","internalType":"uint256"},{"name":"providedThoughtSpecId","type":"bytes32","internalType":"bytes32"},{"name":"providedThoughtSpecHash","type":"bytes32","internalType":"bytes32"},{"name":"promptHash","type":"bytes32","internalType":"bytes32"},{"name":"provenanceJson","type":"string","internalType":"string"},{"name":"deadline","type":"uint256","internalType":"uint256"},{"name":"pathSignature","type":"bytes","internalType":"bytes"}],"outputs":[{"name":"tokenId","type":"uint256","internalType":"uint256"}],"stateMutability":"nonpayable"},{"type":"function","name":"name","inputs":[],"outputs":[{"name":"","type":"string","internalType":"string"}],"stateMutability":"view"},{"type":"function","name":"normalizeText","inputs":[{"name":"input","type":"string","internalType":"string"}],"outputs":[{"name":"normalized","type":"string","internalType":"string"}],"stateMutability":"pure"},{"type":"function","name":"normalizeThought","inputs":[{"name":"rawText","type":"string","internalType":"string"}],"outputs":[{"name":"","type":"string","internalType":"string"}],"stateMutability":"pure"},{"type":"function","name":"ownerOf","inputs":[{"name":"tokenId","type":"uint256","internalType":"uint256"}],"outputs":[{"name":"","type":"address","internalType":"address"}],"stateMutability":"view"},{"type":"function","name":"pathIdOf","inputs":[{"name":"tokenId","type":"uint256","internalType":"uint256"}],"outputs":[{"name":"","type":"uint256","internalType":"uint256"}],"stateMutability":"view"},{"type":"function","name":"pathNft","inputs":[],"outputs":[{"name":"","type":"address","internalType":"address"}],"stateMutability":"view"},{"type":"function","name":"pathSerialOf","inputs":[{"name":"tokenId","type":"uint256","internalType":"uint256"}],"outputs":[{"name":"","type":"uint32","internalType":"uint32"}],"stateMutability":"view"},{"type":"function","name":"previewText","inputs":[{"name":"input","type":"string","internalType":"string"}],"outputs":[{"name":"normalized","type":"string","internalType":"string"},{"name":"valid","type":"bool","internalType":"bool"},{"name":"reasonCode","type":"uint8","internalType":"uint8"}],"stateMutability":"pure"},{"type":"function","name":"previewWork","inputs":[{"name":"rawReturn","type":"string","internalType":"string"}],"outputs":[{"name":"ok","type":"bool","internalType":"bool"},{"name":"text","type":"string","internalType":"string"},{"name":"svg","type":"string","internalType":"string"},{"name":"reasonCode","type":"uint8","internalType":"uint8"}],"stateMutability":"pure"},{"type":"function","name":"promptHashOf","inputs":[{"name":"tokenId","type":"uint256","internalType":"uint256"}],"outputs":[{"name":"","type":"bytes32","internalType":"bytes32"}],"stateMutability":"view"},{"type":"function","name":"provenanceHashOf","inputs":[{"name":"tokenId","type":"uint256","internalType":"uint256"}],"outputs":[{"name":"","type":"bytes32","internalType":"bytes32"}],"stateMutability":"view"},{"type":"function","name":"provenanceOf","inputs":[{"name":"tokenId","type":"uint256","internalType":"uint256"}],"outputs":[{"name":"","type":"string","internalType":"string"}],"stateMutability":"view"},{"type":"function","name":"rawTextOf","inputs":[{"name":"tokenId","type":"uint256","internalType":"uint256"}],"outputs":[{"name":"","type":"string","internalType":"string"}],"stateMutability":"view"},{"type":"function","name":"recordOf","inputs":[{"name":"tokenId","type":"uint256","internalType":"uint256"}],"outputs":[{"name":"textHash","type":"bytes32","internalType":"bytes32"},{"name":"promptHash","type":"bytes32","internalType":"bytes32"},{"name":"provenanceHash","type":"bytes32","internalType":"bytes32"},{"name":"thoughtSpecId_","type":"bytes32","internalType":"bytes32"},{"name":"thoughtSpecHash","type":"bytes32","internalType":"bytes32"},{"name":"pathId","type":"uint256","internalType":"uint256"},{"name":"minter","type":"address","internalType":"address"},{"name":"mintedAt","type":"uint64","internalType":"uint64"}],"stateMutability":"view"},{"type":"function","name":"renderThoughtSvg","inputs":[{"name":"canonicalText","type":"string","internalType":"string"}],"outputs":[{"name":"","type":"string","internalType":"string"}],"stateMutability":"pure"},{"type":"function","name":"renderTokenSvg","inputs":[{"name":"tokenId","type":"uint256","internalType":"uint256"}],"outputs":[{"name":"","type":"string","internalType":"string"}],"stateMutability":"view"},{"type":"function","name":"safeTransferFrom","inputs":[{"name":"from","type":"address","internalType":"address"},{"name":"to","type":"address","internalType":"address"},{"name":"tokenId","type":"uint256","internalType":"uint256"}],"outputs":[],"stateMutability":"nonpayable"},{"type":"function","name":"safeTransferFrom","inputs":[{"name":"from","type":"address","internalType":"address"},{"name":"to","type":"address","internalType":"address"},{"name":"tokenId","type":"uint256","internalType":"uint256"},{"name":"data","type":"bytes","internalType":"bytes"}],"outputs":[],"stateMutability":"nonpayable"},{"type":"function","name":"setApprovalForAll","inputs":[{"name":"operator","type":"address","internalType":"address"},{"name":"approved","type":"bool","internalType":"bool"}],"outputs":[],"stateMutability":"nonpayable"},{"type":"function","name":"supportsInterface","inputs":[{"name":"interfaceId","type":"bytes4","internalType":"bytes4"}],"outputs":[{"name":"","type":"bool","internalType":"bool"}],"stateMutability":"pure"},{"type":"function","name":"svgOf","inputs":[{"name":"tokenId","type":"uint256","internalType":"uint256"}],"outputs":[{"name":"","type":"string","internalType":"string"}],"stateMutability":"view"},{"type":"function","name":"symbol","inputs":[],"outputs":[{"name":"","type":"string","internalType":"string"}],"stateMutability":"view"},{"type":"function","name":"textHashOf","inputs":[{"name":"tokenId","type":"uint256","internalType":"uint256"}],"outputs":[{"name":"","type":"bytes32","internalType":"bytes32"}],"stateMutability":"view"},{"type":"function","name":"textHashOf","inputs":[{"name":"canonicalText","type":"string","internalType":"string"}],"outputs":[{"name":"","type":"bytes32","internalType":"bytes32"}],"stateMutability":"pure"},{"type":"function","name":"thoughtSpecOf","inputs":[{"name":"tokenId","type":"uint256","internalType":"uint256"}],"outputs":[{"name":"specId","type":"bytes32","internalType":"bytes32"},{"name":"specHash","type":"bytes32","internalType":"bytes32"},{"name":"specName","type":"string","internalType":"string"},{"name":"ref","type":"string","internalType":"string"}],"stateMutability":"view"},{"type":"function","name":"thoughtSpecRegistry","inputs":[],"outputs":[{"name":"","type":"address","internalType":"address"}],"stateMutability":"view"},{"type":"function","name":"thoughtText","inputs":[{"name":"tokenId","type":"uint256","internalType":"uint256"}],"outputs":[{"name":"","type":"string","internalType":"string"}],"stateMutability":"view"},{"type":"function","name":"tokenOfTextHash","inputs":[{"name":"textHash","type":"bytes32","internalType":"bytes32"}],"outputs":[{"name":"tokenId","type":"uint256","internalType":"uint256"}],"stateMutability":"view"},{"type":"function","name":"tokenOfThought","inputs":[{"name":"textHash","type":"bytes32","internalType":"bytes32"}],"outputs":[{"name":"","type":"uint256","internalType":"uint256"}],"stateMutability":"view"},{"type":"function","name":"tokenURI","inputs":[{"name":"tokenId","type":"uint256","internalType":"uint256"}],"outputs":[{"name":"","type":"string","internalType":"string"}],"stateMutability":"view"},{"type":"function","name":"totalSupply","inputs":[],"outputs":[{"name":"","type":"uint256","internalType":"uint256"}],"stateMutability":"view"},{"type":"function","name":"transferFrom","inputs":[{"name":"from","type":"address","internalType":"address"},{"name":"to","type":"address","internalType":"address"},{"name":"tokenId","type":"uint256","internalType":"uint256"}],"outputs":[],"stateMutability":"nonpayable"},{"type":"event","name":"Approval","inputs":[{"name":"owner","type":"address","indexed":true,"internalType":"address"},{"name":"approved","type":"address","indexed":true,"internalType":"address"},{"name":"tokenId","type":"uint256","indexed":true,"internalType":"uint256"}],"anonymous":false},{"type":"event","name":"ApprovalForAll","inputs":[{"name":"owner","type":"address","indexed":true,"internalType":"address"},{"name":"operator","type":"address","indexed":true,"internalType":"address"},{"name":"approved","type":"bool","indexed":false,"internalType":"bool"}],"anonymous":false},{"type":"event","name":"PathThoughtConsumed","inputs":[{"name":"pathId","type":"uint256","indexed":true,"internalType":"uint256"},{"name":"claimer","type":"address","indexed":true,"internalType":"address"},{"name":"serial","type":"uint32","indexed":false,"internalType":"uint32"}],"anonymous":false},{"type":"event","name":"ThoughtMinted","inputs":[{"name":"tokenId","type":"uint256","indexed":true,"internalType":"uint256"},{"name":"minter","type":"address","indexed":true,"internalType":"address"},{"name":"pathId","type":"uint256","indexed":true,"internalType":"uint256"},{"name":"textHash","type":"bytes32","indexed":false,"internalType":"bytes32"},{"name":"provenanceHash","type":"bytes32","indexed":false,"internalType":"bytes32"},{"name":"thoughtSpecId","type":"bytes32","indexed":false,"internalType":"bytes32"},{"name":"thoughtSpecHash","type":"bytes32","indexed":false,"internalType":"bytes32"},{"name":"mintedAt","type":"uint64","indexed":false,"internalType":"uint64"}],"anonymous":false},{"type":"event","name":"Transfer","inputs":[{"name":"from","type":"address","indexed":true,"internalType":"address"},{"name":"to","type":"address","indexed":true,"internalType":"address"},{"name":"tokenId","type":"uint256","indexed":true,"internalType":"uint256"}],"anonymous":false},{"type":"error","name":"ApprovalCallerNotOwnerNorApproved","inputs":[]},{"type":"error","name":"ApprovalToCurrentOwner","inputs":[]},{"type":"error","name":"BalanceQueryForZeroAddress","inputs":[]},{"type":"error","name":"EmptyProvenance","inputs":[]},{"type":"error","name":"EmptyThoughtText","inputs":[]},{"type":"error","name":"InvalidColorFont","inputs":[]},{"type":"error","name":"InvalidColorFontIndex","inputs":[]},{"type":"error","name":"InvalidColorFontLetter","inputs":[]},{"type":"error","name":"InvalidPathNft","inputs":[]},{"type":"error","name":"InvalidReceiver","inputs":[]},{"type":"error","name":"InvalidSender","inputs":[]},{"type":"error","name":"InvalidThoughtSpecPair","inputs":[{"name":"thoughtSpecId","type":"bytes32","internalType":"bytes32"},{"name":"thoughtSpecHash","type":"bytes32","internalType":"bytes32"}]},{"type":"error","name":"InvalidThoughtSpecRegistry","inputs":[]},{"type":"error","name":"NonCanonicalThoughtText","inputs":[]},{"type":"error","name":"NonexistentToken","inputs":[]},{"type":"error","name":"NotAuthorized","inputs":[]},{"type":"error","name":"ProvenanceTooLarge","inputs":[{"name":"size","type":"uint256","internalType":"uint256"},{"name":"max","type":"uint256","internalType":"uint256"}]},{"type":"error","name":"ReentrantCall","inputs":[]},{"type":"error","name":"ThoughtAlreadyMinted","inputs":[{"name":"textHash","type":"bytes32","internalType":"bytes32"},{"name":"tokenId","type":"uint256","internalType":"uint256"}]},{"type":"error","name":"ThoughtTextTooLarge","inputs":[{"name":"actual","type":"uint256","internalType":"uint256"},{"name":"max","type":"uint256","internalType":"uint256"}]},{"type":"error","name":"TransferToNonReceiverImplementer","inputs":[]},{"type":"error","name":"TransferToZeroAddress","inputs":[]}],"bytecode":{"object":"0x60e080604052346105dd57606081615849803803809161001f8285610662565b8339810103126105dd5761003281610699565b9061004b604061004460208401610699565b9201610699565b916001600160a01b038116158015610659575b61064a576001600160a01b038216158015610641575b610632576001600160a01b03831680158015610629575b6105a25760405163af640d0f60e01b81525f81600481855afa5f918161060d575b506100c05763b007873160e01b5f5260045ffd5b60208151910120601460206040516100d9604082610662565b828152017f696e7368656c6c2e636f6c6f72666f6e742e7631000000000000000000000000815220036105a25760405163054fd4d560e41b81525f81600481855afa5f91816105e9575b506101375763b007873160e01b5f5260045ffd5b6020815191012060026020604051610150604082610662565b8281520161763160f01b815220036105a257602060049160405192838092624dead360e51b82525afa5f91816105b1575b506101955763b007873160e01b5f5260045ffd5b60405170209d189d30b8bab09d119818333333330560791b6020820190815270211d191d31363ab29d119818181833330560791b60318301527f433a333a636f666665653a233666346533370a00000000000000000000000000604283015271221d1a1d3232b734b69d119b1b1c9cb3330560711b60558301527f453a353a6567677368656c6c3a236666663965330a000000000000000000000060678301527f463a363a667563687369613a236666303066660a000000000000000000000000607c83015271239d1b9d33b932b2b71d1198181c1818180560711b609083015271241d1c1d3437b732bc9d11b33331b198180560711b60a28301527f493a393a696e6469676f3a233462303038320a0000000000000000000000000060b48301527f4a3a31303a6a61646520677265656e3a233030613836620a000000000000000060c78301527f4b3a31313a6b68616b693a236333623039310a0000000000000000000000000060df83015271261d18991d3634b6b29d119818333318180560711b60f28301527f4d3a31333a6d61726f6f6e3a233830303030300a00000000000000000000000061010483015271271d189a1d3730bb3c9d11983098989b990560711b6101188301527f4f3a31353a6f72616e67653a236666613530300a00000000000000000000000061012a83015271281d189b1d3834b7359d11b33330b0b2320560711b61013e8301527f513a31373a717569636b73696c7665723a236136613661360a0000000000000061015083015270291d189c1d3932b21d11b333181818180560791b6101698301527f533a31393a73616c6d6f6e3a236661383037320a00000000000000000000000061017a830152712a1d19181d3a32b0b61d1198181c181c180560711b61018e8301527f553a32313a756c7472616d6172696e653a233535333366660a000000000000006101a08301527f563a32323a76696f6c65743a236161353566660a0000000000000000000000006101b98301527f573a32333a77686561743a236635646562330a000000000000000000000000006101cd830152712c1d191a1d3c3930bc9d11b13131b1b1b18560711b6101e08301527f593a32353a79656c6c6f773a236666666630300a0000000000000000000000006101f28301527f5a3a32363a7a6f6d62696520677261793a2337373838373700000000000000006102068301526101fe82529061051a61021e82610662565b519020036105a25760805260a05260c05260405161512a908161071f823960805181818161047401526120f6015260a0518181816109ef01528181611d380152612290015260c051818181610c1b015281816111e60152818161181f01528181611a7e01528181611b0b015281816121540152818161220601528181612311015261246e0152f35b63b007873160e01b5f5260045ffd5b9091506020813d6020116105e1575b816105cd60209383610662565b810103126105dd5751905f610181565b5f80fd5b3d91506105c0565b6106069192503d805f833e6105fe8183610662565b8101906106ad565b905f610123565b6106229192503d805f833e6105fe8183610662565b905f6100ac565b50833b1561008b565b63164902ef60e01b5f5260045ffd5b50813b15610074565b63e3c0682960e01b5f5260045ffd5b50803b1561005e565b601f909101601f19168101906001600160401b0382119082101761068557604052565b634e487b7160e01b5f52604160045260245ffd5b51906001600160a01b03821682036105dd57565b6020818303126105dd578051906001600160401b0382116105dd570181601f820112156105dd578051906001600160401b03821161068557604051926106fd601f8401601f191660200185610662565b828452602083830101116105dd57815f9260208093018386015e830101529056fe60a0806040526004361015610012575f80fd5b5f3560e01c90816301ffc9a71461263a5750806306b166611461244457806306fdde0314611cda578063081812fc14612608578063095ea7b3146125345780630bb534b7146125085780630effdd26146124ed5780630f83b426146124235780630fe340d214612449578063122daf081461244457806318160ddd1461242857806321cc47a1146124235780632309c76d146122d657806323b872dd146122bf5780632c4062551461227b5780632d53d7de146121e2578063366c249b146121ac57806342842e0e1461218357806342bb03361461213f57806344c6a2aa1461194d57806351ac7bb314612125578063540795a4146120e157806355c29be11461209c57806355d742e414612010578063571733ab14611fd0578063591f0b9e14611fb55780635f0f16c414611f2e5780636352211e14611efe57806364b38f4b14611ee35780637093d4c814611ec857806370a0823114611e7b578063922e05e614611cdf57806395d89b4114611cda5780639de7bab914611ca4578063a0901b0b14611c7f578063a22cb46514611bf6578063a5f9c79914611acd578063a61ca74414611a5a578063b88d4fde146119f9578063b9d29eaf14611977578063ba46895c1461194d578063bc64d93414611932578063c0fe387b146118e8578063c159a6d91461186e578063c6cc9e6f146117fb578063c87b56dd14610d15578063cda6153a14610cf9578063d2a6790a14610c91578063d6562b9e14610bf2578063df49557314610bf7578063e2ae5f1314610bf2578063e985e9c514610b9b578063ed8b3ed014610b80578063ed98065b14610b64578063f25f317914610b2e578063f4105f3514610af2578063f7291e0b146102d45763f990d58d1461029a575f80fd5b346102d05760203660031901126102d0576004356102b781612e42565b5f5260066020526020600760405f200154604051908152f35b5f80fd5b346102d0576101003660031901126102d0576004356001600160401b0381116102d0576103059036906004016126a5565b9060a4356001600160401b0381116102d0576103259036906004016126a5565b92909160e4356001600160401b0381116102d0576103479036906004016126a5565b949091600160075414610ae3576001600755610364368583612854565b93845115610ad457845160808111610aa0575061038b91610386913691612854565b612c76565b610396368387612854565b93815115610ad45781519060208301918220906020815191012003610ac557845115610ab757815160808111610aa0575084516108008111610a8857508151902093845f52600160205260405f205480610a7257506020815191012092604435158015610a68575b80156109c8575b6109ad578660c4602092604051998a93849263acdfe46d60e01b8452602435600485015266151213d551d21560ca1b60248501523360448501528435606485015260a060848501528160a4850152848401375f838284010152601f801991011681010301815f60018060a01b037f0000000000000000000000000000000000000000000000000000000000000000165af19586156109a2575f96610966575b505f549460018601861161095257600186015f55845f5260016020526001860160405f2055604051926101608401928484106001600160401b03851117610880576104f59360405284523691612854565b6020820152826040820152608435606082015281608082015260443560a082015260643560c082015260243560e082015263ffffffff851661010082015261012081013381526101408201906001600160401b0342168252600186015f52600660205260405f209280518051906001600160401b03821161088057819061057c87546128c0565b601f8111610902575b50602090601f831160011461089f575f92610894575b50508160011b915f199060031b1c19161784555b6001840160208201518051906001600160401b038211610880576105d383546128c0565b601f811161083b575b50602090601f83116001146107ca5792826101009360089897969363ffffffff965f926107bf575b50508160011b915f199060031b1c19161790555b60408101516002880155606081015160038801556080810151600488015560a0810151600588015560c0810151600688015560e0810151600788015501511690640100000000600160c01b03905160201b16916001600160401b0360c01b905160c01b1691171791015533156107b057600183015f908152600260205260409020546001600160a01b03166107a157335f8181526003602090815260408083208054600190810190915587018084526002835281842080546001600160a01b0319168617905590519197919363ffffffff937fddf252ad1be2c89b69c2b068fc378daa952ba7f163c4a11628f55a4df523b3ef8180a416815233907fe0e6a445ac8ff8a030e836836e44e3bac120e57cbd845e01ee33f2ba46a1f68f8660243592a360405191825283820152604435604082015260643560608201526001600160401b03421660808201526024359033907ff83a962c31fcc481a4796d3bd1f81a4b58d1b05ec5cb34e434b2d4096259686060a06001860192a45f600755600160405191018152f35b631e4ec46b60e01b5f5260045ffd5b633a954ecd60e21b5f5260045ffd5b015190508e80610604565b90601f19831691845f52815f20925f5b81811061082357509360089897969363ffffffff969360019383610100981061080b575b505050811b019055610618565b01515f1960f88460031b161c191690558e80806107fe565b929360206001819287860151815501950193016107da565b835f5260205f20601f840160051c81019160208510610876575b601f0160051c01905b81811061086b57506105dc565b5f815560010161085e565b9091508190610855565b634e487b7160e01b5f52604160045260245ffd5b015190508a8061059b565b5f8881528281209350601f198516905b8181106108ea57509084600195949392106108d2575b505050811b0184556105af565b01515f1960f88460031b161c191690558a80806108c5565b929360206001819287860151815501950193016108af565b909150865f5260205f20601f840160051c81019160208510610948575b90601f859493920160051c01905b81811061093a5750610585565b5f815584935060010161092d565b909150819061091f565b634e487b7160e01b5f52601160045260245ffd5b9095506020813d60201161099a575b8161098260209383612736565b810103126102d05761099390612aa4565b94866104a4565b3d9150610975565b6040513d5f823e3d90fd5b631f5bbb6360e11b5f5260443560045260643560245260445ffd5b50604051630e6a82af60e41b815260448035600483015260643560248301526020908290817f00000000000000000000000000000000000000000000000000000000000000006001600160a01b03165afa9081156109a2575f91610a2e575b5015610405565b90506020813d602011610a60575b81610a4960209383612736565b810103126102d057610a5a90612a97565b88610a27565b3d9150610a3c565b50606435156103fe565b856373c8975560e11b5f5260045260245260445ffd5b637e15135b60e01b5f5260045261080060245260445ffd5b63849d92e560e01b5f52600452608060245260445ffd5b621ee3fd60e71b5f5260045ffd5b63093f0a4f60e41b5f5260045ffd5b6306dbcca560e21b5f5260045ffd5b6306fda65d60e31b5f5260045ffd5b346102d05760203660031901126102d057600435610b0f81612e42565b5f526006602052602063ffffffff600860405f20015416604051908152f35b346102d05760203660031901126102d057600435610b4b81612e42565b5f5260066020526020600460405f200154604051908152f35b346102d0575f3660031901126102d05760206040516108008152f35b346102d0575f3660031901126102d057602060405160028152f35b346102d05760403660031901126102d057610bb46127bb565b610bbc6127d1565b9060018060a01b03165f52600560205260405f209060018060a01b03165f52602052602060ff60405f2054166040519015158152f35b61288a565b346102d0575f3660031901126102d05760405163054fd4d560e41b81525f816004817f00000000000000000000000000000000000000000000000000000000000000006001600160a01b03165afa80156109a257610c6b915f91610c6f575b506040519182916020835260208301906126d2565b0390f35b610c8b91503d805f833e610c838183612736565b810190612ab5565b82610c56565b346102d05760203660031901126102d0576004356001600160401b0381116102d05760ff610ccf610cc9610ce79336906004016126a5565b90612ba8565b604093919293519485946060865260608601906126d2565b92151560208501521660408301520390f35b346102d0575f3660031901126102d05760206040516102008152f35b346102d05760203660031901126102d057600435610d3281612e42565b805f52600660205260405f20906002820154610d4d90613a94565b906004830154610d5c90613a94565b916005840154610d6b90613a94565b906006850154610d7a90613a94565b94610d84816128f8565b610d8d90612fc3565b93610d9790613b74565b93610da190613c14565b94600782015493610db185613b74565b916003840154610dc081613a94565b9560409a8b958651610dd28882612736565b6014815273696e7368656c6c2e636f6c6f72666f6e742e763160601b60208201528751610dff8982612736565b6002815261763160f01b6020820152610e16613e15565b610e1f90613a94565b9189519b8c94602086017f5b7b2274726169745f74797065223a2270617468222c2276616c7565223a2200905280516020819201603f88015e7f227d2c7b2274726169745f74797065223a22736368656d61222c2276616c7565603f918701918201527f223a2274686f756768742e70726f76656e616e63652e76310000000000000000605f8201527f227d2c7b2274726169745f74797065223a227465787448617368222c2276616c6077820152643ab2911d1160d91b60978201528751908160208a01609c83015e01603f01605d81017f227d2c7b2274726169745f74797065223a2270726f6d707448617368222c227690526630b63ab2911d1160c91b607d82015281516020819301608483015e01605d01602781017f227d2c7b2274726169745f74797065223a2270726f76656e616e63654861736890526a1116113b30b63ab2911d1160a91b60478201528851908160208b01605283015e01602701602b81017f227d2c7b2274726169745f74797065223a2254686f756768742053706563204990526b221116113b30b63ab2911d1160a11b604b8201528951908160208c01605783015e01602b01602c81017f227d2c7b2274726169745f74797065223a2254686f756768742053706563204890526d30b9b41116113b30b63ab2911d1160911b604c8201528551908160208801605a83015e01602c01602e81017f227d2c7b2274726169745f74797065223a22636f6c6f72466f6e74222c227661905265363ab2911d1160d11b604e82015281516020819301605483015e01602e01602681017f227d2c7b2274726169745f74797065223a22636f6c6f72466f6e74566572736990526c37b71116113b30b63ab2911d1160991b604682015281516020819301605383015e01602601602d81017f227d2c7b2274726169745f74797065223a22636f6c6f72466f6e74486173682290526916113b30b63ab2911d1160b11b604d82015281516020819301605783015e01602d0162227d5d60e81b602a82015203602a01601c198101895260030161111d9089612736565b611126876128f8565b61112f90614267565b6111389061413a565b9360018801996111478b6128f8565b61115090614267565b6111599061413a565b9461116390613a94565b9260088a01549763ffffffff891661117a90613b74565b9261118490613b74565b938a51956111928c88612736565b6014875273696e7368656c6c2e636f6c6f72666f6e742e763160601b60208801528b51976111c08d8a612736565b6002895261763160f01b60208a01526111d7613e15565b6111e090613a94565b9961120a7f0000000000000000000000000000000000000000000000000000000000000000614179565b9b61122160208f901c6001600160a01b0316614179565b9d60c01c61122e90613b74565b9e516080526a3d913930bbaa32bc3a111d60a91b6080516020015280516020819201608051602b015e60805101711611383937bb32b730b731b2a539b7b7111d60711b602b82015281516020819301603d83015e01602b016c16113a32bc3a2430b9b4111d1160991b601282015281516020819301601f83015e016012016f111611383937b6b83a2430b9b4111d1160811b600d82015281516020819301601d83015e01600d0173111611383937bb32b730b731b2a430b9b4111d1160611b601082015281516020819301602483015e01601001721116113a3437bab3b43a29b832b1a4b2111d1160691b601482015281516020819301602783015e01601401741116113a3437bab3b43a29b832b1a430b9b4111d1160591b601382015281516020819301602883015e016013016f1116113830ba3429b2b934b0b6111d1160811b601582015281516020819301602583015e016015016b1116113830ba3424b2111d1160a11b601082015281516020819301601c83015e016010016e11161131b7b637b92337b73a111d1160891b600c82015281516020819301601b83015e01600c017511161131b7b637b92337b73a2b32b939b4b7b7111d1160511b600f82015281516020819301602583015e01600f017211161131b7b637b92337b73a2430b9b4111d1160691b601682015281516020819301602983015e01601601601381017f222c22636f6c6f72466f6e74436f6e7472616374223a22000000000000000000905281516020819301602a83015e016013016b11161136b4b73a32b9111d1160a11b601782015281516020819301602383015e016017016c11161136b4b73a32b220ba111d60991b600c82015281516020819301601983015e01600c01600d8101607d60f81b90526080519003600d01601e19810160805152600101608051906114db91612736565b6114e4906128f8565b916114ee906128f8565b916114f890614267565b6115019061413a565b9161150b90614267565b6115149061413a565b90855180926020820194673d913a32bc3a111d60c11b865280516020819201602885015e82016d1611383937bb32b730b731b2911d60911b602882015281516020819301603683015e01602801600e8101607d60f81b905203600e01601e19810183526001016115849083612736565b8551948594717b226e616d65223a2254484f55474854202360701b602087015280516020819201603288015e7f222c226465736372697074696f6e223a2254484f55474854206973206120636f6032918701918201527f6e74726163742d63616e6f6e6963616c20636f6c6f722d666f6e7420776f726b60528201527f2e20497473207265636f72642073746f726573207468652063616e6f6e69636160728201527f6c20746578742c2050415448206d6f76656d656e74207573652c2070726f766560928201527f6e616e636520686173682c20616e64207468652072656769737465726564205460b28201527f484f554748542e6d642076657273696f6e206465636c6172656420666f72207460d2820152673432903bb7b9359760c11b60f28201527f222c22696d616765223a22646174613a696d6167652f7376672b786d6c3b626160fa820152641cd94d8d0b60da1b61011a820152815191829060200161011f83015e016032016e11161130ba3a3934b13aba32b9911d60891b60ed8201528151602081930160fc83015e0160ed016d1611383937b832b93a34b2b9911d60911b600f820152608051519081608051602001601d83015e01600f01906a16113a3437bab3b43a111d60a91b600e830152518092601983015e01600e01600b8101607d60f81b905203600b01601e19810182526001016117889082612736565b61179190613c14565b9080518092602082017f646174613a6170706c69636174696f6e2f6a736f6e3b6261736536342c000000905280516020819201603d84015e8101603d81015f905203603d01601f19810183526117e79083612736565b5180916020825260208201610c6b916126d2565b346102d0575f3660031901126102d0576040516339ea509d60e11b81525f816004817f00000000000000000000000000000000000000000000000000000000000000006001600160a01b03165afa80156109a257610c6b915f91610c6f57506040519182916020835260208301906126d2565b346102d05760203660031901126102d0576004356001600160401b0381116102d05760ff6118ac6118a66118dd9336906004016126a5565b90612b0a565b92939194906118cf604051968796151587526080602088015260808701906126d2565b9085820360408701526126d2565b911660608301520390f35b346102d05760203660031901126102d05760043561190581612e42565b5f526006602052610c6b61191e600160405f20016128f8565b6040519182916020835260208301906126d2565b346102d0575f3660031901126102d057602060405160048152f35b346102d05760203660031901126102d0576004355f526001602052602060405f2054604051908152f35b346102d05760203660031901126102d0576004356001600160401b0381116102d0576119a79036906004016126a5565b906119b3368383612854565b91825115610ad457825160808111610aa057506119d591610386913691612854565b602081519101208151906020830191822003610ac557602091519020604051908152f35b346102d05760803660031901126102d057611a126127bb565b611a1a6127d1565b606435916001600160401b0383116102d057366023840112156102d057611a4e611a58933690602481600401359101612854565b9160443591612add565b005b346102d0575f3660031901126102d05760405163af640d0f60e01b81525f816004817f00000000000000000000000000000000000000000000000000000000000000006001600160a01b03165afa80156109a257610c6b915f91610c6f57506040519182916020835260208301906126d2565b346102d05760203660031901126102d05760043560ff60f81b81168091036102d057604051636094e46560e01b815260048101919091525f816024817f00000000000000000000000000000000000000000000000000000000000000006001600160a01b03165afa9081156109a2575f905f905f93611b7a575b5060ff92611b6c610c6b926040519586951685526060602086015260608501906126d2565b9083820360408501526126d2565b925050503d805f833e611b8d8183612736565b81016060828203126102d057611ba282612998565b9060208301516001600160401b0381116102d05781611bc29185016129a6565b9160408401516001600160401b0381116102d057611bea610c6b93611b6c9260ff97016129a6565b91939194505090611b47565b346102d05760403660031901126102d057611c0f6127bb565b602435908115158092036102d057335f52600560205260405f2060018060a01b0382165f5260205260405f2060ff1981541660ff841617905560405191825260018060a01b0316907f17307eab39ab6107e8899845ad3d59bd9653f200f220920489ca2b5937696c3160203392a3005b346102d0575f3660031901126102d05760405166151213d551d21560ca1b8152602090f35b346102d05760203660031901126102d057600435611cc181612e42565b5f5260066020526020600360405f200154604051908152f35b612772565b346102d05760203660031901126102d057606080600435611cff81612e42565b5f52600660205260405f20906006600583015492015492604051916397a360e160e01b83528360048401525f8360248160018060a01b037f0000000000000000000000000000000000000000000000000000000000000000165afa80156109a2575f5f90875f5f94611dc8575b610c6b975082611dbe575b5050611db0575b5050611da290604051958695865260208601526080604086015260808501906126d2565b9083820360608501526126d2565b9092509050611da286611d7e565b1490508789611d77565b50505050503d805f853e611ddc8185612736565b83019260e0818503126102d057611df281612a97565b9360208201516001600160401b0381116102d05781611e129184016129a6565b6040830151916060840151906001600160401b0382116102d057611e379185016129a6565b60808401519093906001600160a01b038116036102d05780611e5d60a060c09301612aa4565b5001516001600160401b038116036102d05787610c6b969192611d6c565b346102d05760203660031901126102d0576001600160a01b03611e9c6127bb565b168015611eb9575f526003602052602060405f2054604051908152f35b6323d3ad8160e21b5f5260045ffd5b346102d0575f3660031901126102d057602060405160058152f35b346102d0575f3660031901126102d057602060405160018152f35b346102d05760203660031901126102d0576020611f1c600435612a68565b6040516001600160a01b039091168152f35b346102d05760203660031901126102d0576004356001600160401b0381116102d057611f5e9036906004016126a5565b90611f6a368383612854565b805115610ad457805160808111610aa05750611f8a610386368585612854565b60208151910120906020815191012003610ac557611fb061191e91610c6b933691612854565b612fc3565b346102d0575f3660031901126102d057602060405160038152f35b346102d05760203660031901126102d057600435611fed81612e42565b5f526006602052602060018060a01b03600860405f200154821c16604051908152f35b346102d05760203660031901126102d05760043561202d81612e42565b5f52600660205261010060405f20600281015490600381015490600481015460058201546006830154916008600785015494015494604051968752602087015260408601526060850152608084015260a083015260018060a01b038160201c1660c083015260c01c60e0820152f35b346102d05760203660031901126102d0576004356001600160401b0381116102d0576120d76120d160209236906004016126a5565b906129ec565b6040519015158152f35b346102d0575f3660031901126102d0576040517f00000000000000000000000000000000000000000000000000000000000000006001600160a01b03168152602090f35b346102d0575f3660031901126102d05760206040515f8152f35b346102d0575f3660031901126102d0576040517f00000000000000000000000000000000000000000000000000000000000000006001600160a01b03168152602090f35b346102d057611a586121943661281a565b90604051926121a4602085612736565b5f8452612add565b346102d05760203660031901126102d0576004356121c981612e42565b5f5260066020526020600260405f200154604051908152f35b346102d0575f3660031901126102d057604051624dead360e51b81526020816004817f00000000000000000000000000000000000000000000000000000000000000006001600160a01b03165afa80156109a2575f90612248575b602090604051908152f35b506020813d602011612273575b8161226260209383612736565b810103126102d0576020905161223d565b3d9150612255565b346102d0575f3660031901126102d0576040517f00000000000000000000000000000000000000000000000000000000000000006001600160a01b03168152602090f35b346102d057611a586122d03661281a565b91612e60565b346102d05760203660031901126102d05760043560ff81168091036102d0576040516311a0c6cd60e21b815260048101919091525f816024817f00000000000000000000000000000000000000000000000000000000000000006001600160a01b03165afa9081156109a2575f905f905f905f94612386575b5092611da2610c6b926123729560ff6040519788976080895260808901906126d2565b9216602087015285820360408701526126d2565b93505050503d805f833e61239a8183612736565b81016080828203126102d05781516001600160401b0381116102d057816123c29184016129a6565b906123cf60208401612998565b9160408401516001600160401b0381116102d057826123ef9186016129a6565b6060850151906001600160401b0382116102d057612418610c6b94611da29361237298016129a6565b95509193925061234f565b6127e7565b346102d0575f3660031901126102d05760205f54604051908152f35b6126f6565b346102d0575f3660031901126102d057604051630fbdb69960e11b81526020816004817f00000000000000000000000000000000000000000000000000000000000000006001600160a01b03165afa80156109a2575f906124b3575b60209060ff60405191168152f35b506020813d6020116124e5575b816124cd60209383612736565b810103126102d0576124e0602091612998565b6124a5565b3d91506124c0565b346102d0575f3660031901126102d057602060405160808152f35b346102d05760203660031901126102d0576004355f526001602052602060405f20541515604051908152f35b346102d05760403660031901126102d05761254d6127bb565b602435906001600160a01b0361256283612a68565b6001600160a01b0390921691168181146125f95780331415806125d6575b6125c7575f83815260046020526040812080546001600160a01b031916841790557f8c5be1e5ebec7d5bd14f71427d1e84f3dd0314c0f7b2291e5b200ac8c7c3b9259080a4005b6367d9dca160e11b5f5260045ffd5b505f81815260056020908152604080832033845290915290205460ff1615612580565b63250fdee360e21b5f5260045ffd5b346102d05760203660031901126102d0576004355f526004602052602060018060a01b0360405f205416604051908152f35b346102d05760203660031901126102d0576004359063ffffffff60e01b82168092036102d0576020916301ffc9a760e01b8114908115612694575b8115612683575b5015158152f35b635b5e139f60e01b1490508361267c565b6380ac58cd60e01b81149150612675565b9181601f840112156102d0578235916001600160401b0383116102d057602083818601950101116102d057565b805180835260209291819084018484015e5f828201840152601f01601f1916010190565b346102d05760203660031901126102d0576004356001600160401b0381116102d05761191e61038661272f610c6b9336906004016126a5565b3691612854565b90601f801991011681019081106001600160401b0382111761088057604052565b6001600160401b03811161088057601f01601f191660200190565b346102d0575f3660031901126102d057610c6b604051612793604082612736565b6007815266151213d551d21560ca1b60208201526040519182916020835260208301906126d2565b600435906001600160a01b03821682036102d057565b602435906001600160a01b03821682036102d057565b346102d05760203660031901126102d05760043561280481612e42565b5f526006602052610c6b61191e60405f206128f8565b60609060031901126102d0576004356001600160a01b03811681036102d057906024356001600160a01b03811681036102d0579060443590565b92919261286082612757565b9161286e6040519384612736565b8294818452818301116102d0578281602093845f960137010152565b346102d05760203660031901126102d0576004356128a781612e42565b5f526006602052610c6b61191e611fb060405f206128f8565b90600182811c921680156128ee575b60208310146128da57565b634e487b7160e01b5f52602260045260245ffd5b91607f16916128cf565b9060405191825f82549261290b846128c0565b80845293600181169081156129765750600114612932575b5061293092500383612736565b565b90505f9291925260205f20905f915b81831061295a575050906020612930928201015f612923565b6020919350806001915483858901015201910190918492612941565b90506020925061293094915060ff191682840152151560051b8201015f612923565b519060ff821682036102d057565b81601f820112156102d0578051906129bd82612757565b926129cb6040519485612736565b828452602083830101116102d057815f9260208093018386015e8301015290565b6129f7368383612854565b9182518015908115612a5d575b50612a5657612a1891610386913691612854565b9081518015159283612a4a575b83612a31575b50505090565b60209192935001209060208151910120145f8080612a2b565b60808211159350612a25565b5050505f90565b60809150115f612a04565b5f908152600260205260409020546001600160a01b03168015612a885790565b63163a09e160e31b5f5260045ffd5b519081151582036102d057565b519063ffffffff821682036102d057565b906020828203126102d05781516001600160401b0381116102d057612ada92016129a6565b90565b90612af4939291612aef838383612e60565b6139c2565b15612afb57565b636cb0ba5b60e11b5f5260045ffd5b906102008111612b7b57612b2391610386913691612854565b9081825115612b60576080905111612b4657612b3e82612fc3565b600192915f90565b5f9190604051612b57602082612736565b5f815290600390565b505f9190604051612b72602082612736565b5f815290600190565b50505f90604051612b8d602082612736565b5f815290604051612b9f602082612736565b5f815290600290565b906102008111612be957612bc191610386913691612854565b80518015612be057608010612bd857906001905f90565b905f90600390565b50905f90600190565b5050604051612bf9602082612736565b5f8152905f90600290565b9190820180921161095257565b908151811015612c22570160200190565b634e487b7160e01b5f52603260045260245ffd5b90612c4082612757565b612c4d6040519182612736565b8281528092612c5e601f1991612757565b0190602036910137565b5f1981146109525760010190565b905f80805b8451831015612d4057612c8e8386612c11565b5160f81c60418110159081612d34575b8115612d14575b5015612cfa5780612cf1575b612cd1575b60018101809111610952579260015f925b0191939093612c7b565b6001810180911115612cb657634e487b7160e01b5f52601160045260245ffd5b50801515612cb1565b91819491612d0b575b600190612cc7565b60019250612d03565b6061811015915081612d28575b505f612ca5565b607a915011155f612d21565b605a8111159150612c9e565b50612d4b9150612c36565b5f5f935f915b8151831015612e3a57612d648383612c11565b5160f81c95604187101580612e2f575b8015612e18575b15612dfd5780612df4575b612dd9575b6061861015612dc6575b612db8612da182612c68565b9660f81b6001600160f81b0319165f1a9185612c11565b5360015f925b019194612d51565b94601f190160ff81116109525794612d95565b6020612dee612de783612c68565b9286612c11565b53612d8b565b50801515612d86565b9290809650612e0f575b600190612dbe565b60019250612e07565b5060618710158015612d7b5750607a871115612d7b565b50605a871115612d74565b509193505050565b5f908152600260205260409020546001600160a01b031615612a8857565b612e6983612a68565b6001600160a01b0390811692911690818303612f7f576001600160a01b03169182156107b057803314908115612f5f575b8115612f3c575b5015612f2d57825f52600460205260405f206001600160601b0360a01b8154169055805f52600360205260405f205f198154019055815f52600360205260405f2060018154019055825f52600260205260405f20826001600160601b0360a01b8254161790557fddf252ad1be2c89b69c2b068fc378daa952ba7f163c4a11628f55a4df523b3ef5f80a4565b63ea8e4eb560e01b5f5260045ffd5b5f90815260056020908152604080832033845290915281205460ff169150612ea1565b5f858152600460205260409020546001600160a01b031633149150612e9a565b636edaef2f60e11b5f5260045ffd5b8181029291811591840414171561095257565b8015612faf576289f0800490565b634e487b7160e01b5f52601260045260245ffd5b6040517f3c73766720786d6c6e733d27687474703a2f2f7777772e77332e6f72672f323060208201527f30302f737667272076696577426f783d2730203020393630203936302720736860408201527f6170652d72656e646572696e673d2763726973704564676573273e000000000060608201527f3c646566733e3c636c6970506174682069643d2763616e766173436c6970273e607b8201527f3c7265637420783d27302720793d2730272077696474683d2739363027206865609b8201527f696768743d27393630272f3e3c2f636c6970506174683e3c2f646566733e000060bb8201527f3c726563742077696474683d2739363027206865696768743d2739363027206660d98201526e34b6361e9391981a981a981a93979f60891b60f98201527f3c6720636c69702d706174683d2775726c282363616e766173436c697029273e610108820152610108815261312061012882612736565b908051613166575b50612ada600a602080936040519481869251918291018484015e8101691e17b39f1e17b9bb339f60b11b838201520301601519810184520182612736565b91908251601d810290808204601d14901517156109525783519060018211156139b6575f19820191821161095257600682029180830460061490151715610952576131b19190612c04565b6103888111156139ad576131c490612fa1565b80601d02601d810482036109525761271090049060018551115f146139a55780600602906006820403610952576127109004935b811561399c575b61320a828251612f8e565b8151906001821115613990575f1982019182116109525761322e8761323493612f8e565b90612c04565b5f816103c00391126103c082128116906103c08313901516176109525760029005826103c0036103c08111610952576001969495961c945f945f8312908115925b855188101561343157600160fd1b6001600160f81b03196132968a89612c11565b511614613428576132b06132aa8389612c04565b89612f8e565b8086019081128015851690861617610952576132cb90613d7a565b906132d58a613b74565b6132de89613b74565b6132e78a613b74565b906132f28c8b612c11565b5160f81c60418110801561341e575b61340f57603f190160ff81116109525761331a9061460a565b959250505060405195858796516020819201602089015e860160208101683c7265637420783d2760b81b905281516020819301602983015e0160200160098101642720793d2760d81b905281516020819301600e83015e016009016005810168272077696474683d2760b81b905281516020819301600e83015e01600501600981016927206865696768743d2760b01b905281516020819301601383015e01600901600a810167272066696c6c3d2760c01b905281516020819301601283015e01600a01600881016213979f60e91b905203600801601c19810182526003016134039082612736565b966001905b0196613275565b636bf16af160e11b5f5260045ffd5b50605a8111613301565b96600190613408565b989750505050509150506103a491825f81805b613977575061345281612c36565b945b61393457505061346c6134678351613dd7565b613b74565b925f945f955b845187101561357d57601360f91b6001600160f81b03196134938988612c11565b5116036134b1576005810180911161095257600190965b0195613472565b600f60fa1b6001600160f81b03196134c98988612c11565b511614801561355c575b156134ec576004810180911161095257600190966134aa565b601160f91b6001600160f81b03196135048988612c11565b511614801561353b575b15613527576006810180911161095257600190966134aa565b6001810180911161095257600190966134aa565b50602760f81b6001600160f81b03196135548988612c11565b51161461350e565b50601f60f91b6001600160f81b03196135758988612c11565b5116146134d3565b61358c91949295939650612c36565b925f925f5b835181101561380257806135a760019286612c11565b5160f81c601360f91b6001600160f81b03196135c38489612c11565b511603613624575060266135e06135d988612c68565b9789612c11565b5360616135ef6135d988612c68565b53606d6135fe6135d988612c68565b53607061360d6135d988612c68565b53603b61361c6135d988612c68565b535b01613591565b600f60fa1b6001600160f81b031961363c8489612c11565b511603613685575060266136526135d988612c68565b53606c6136616135d988612c68565b5360746136706135d988612c68565b53603b61367f6135d988612c68565b5361361e565b601f60f91b6001600160f81b031961369d8489612c11565b5116036136c2575060266136b36135d988612c68565b5360676136616135d988612c68565b601160f91b6001600160f81b03196136da8489612c11565b51160361371d575060266136f06135d988612c68565b5360716136ff6135d988612c68565b53607561370e6135d988612c68565b53606f6136616135d988612c68565b602760f81b6001600160f81b03196137358489612c11565b5116036137875750602661374b6135d988612c68565b53606161375a6135d988612c68565b5360706137696135d988612c68565b53606f6137786135d988612c68565b5360736136706135d988612c68565b6020811090816137f6575b816137ea575b816137de575b50156137b257602061367f6135d988612c68565b6001600160f81b03196137c58287612c11565b51169561367f6137d482612c68565b975f1a9189612c11565b600d915014155f61379e565b600a8114159150613798565b60098114159150613792565b50600a9350602095869350604c8493602585612ada9960118261392b98818060079a6040519d8a8f9b5191829101848d015e8a0190703c7465787420783d273438302720793d2760781b83830152805192839101603183015e0101907f2720666f6e742d66616d696c793d276d6f6e6f73706163652720666f6e742d738483015264697a653d2760d81b6031830152805192839101603683015e0101907f2720666f6e742d7765696768743d273130302720746578742d616e63686f723d848301527f276d6964646c65272066696c6c3d2723453845444637272066696c6c2d6f706160458301526b31b4ba3c9e9398171b99139f60a11b6065830152805192839101607183015e0101661e17ba32bc3a1f60c91b838201520301601819810184520182612736565b93505050613128565b5f198101908111610952578091600a8106603001918260301161095257600a9260f81b6001600160f81b0319165f1a9061396e9088612c11565b53049081613454565b915060018101809111610952578491600a900480613444565b61323491505f90612c04565b600191506131ff565b505f936131f8565b506127106131c4565b6131b191505f90612c04565b919290803b15613a8b57613a11935f60209460405196879586948593630a85bd0160e11b855233600486015260018060a01b0316602485015260448401526080606484015260848301906126d2565b03926001600160a01b03165af15f9181613a46575b50613a3057505f90565b6001600160e01b031916630a85bd0160e11b1490565b9091506020813d602011613a83575b81613a6260209383612736565b810103126102d057516001600160e01b0319811681036102d057905f613a26565b3d9150613a55565b50505050600190565b60405190613aa3608083612736565b60428252602082016060368237825115612c225760309053815160011015612c2257607860218301535f5b60208110613adb57505090565b81811a9060ff8260041c166010811015612c22578160011b928284046002148315171561095257836002018060021161095257600f926f181899199a1a9b1b9c1cb0b131b232b360811b901a90613b329088612c11565b5316916010831015612c225760030180600311610952576001926f181899199a1a9b1b9c1cb0b131b232b360811b901a90613b6d9086612c11565b5301613ace565b8015613bf457805f81805b613bdb5750613b8d81612c36565b925b613b9857505090565b5f198101908111610952578091600a8106603001918260301161095257600a9260f81b6001600160f81b0319165f1a90613bd29086612c11565b53049081613b8f565b915060018101809111610952578291600a900480613b7f565b50604051613c03604082612736565b60018152600360fc1b602082015290565b805115613d6557604051613c29606082612736565b604081527f4142434445464748494a4b4c4d4e4f505152535455565758595a61626364656660208201527f6768696a6b6c6d6e6f707172737475767778797a303132333435363738392b2f60408201528151600281018091116109525760039004600281901b92906001600160fe1b0381160361095257613cc2613cac84612757565b93613cba6040519586612736565b808552612757565b6020840190601f190136823781928251830191935b828110613d1557505050600390510680600114613d0357600214613cf9575090565b603d905f19015390565b50603d90815f19820153600119015390565b60036004919592939501916001603f845182828260121c16880101518453828282600c1c16880101518385015382828260061c168801015160028501531685010151600382015301939190613cd7565b50604051613d74602082612736565b5f815290565b5f811215613dce57600160ff1b811461095257612ada6021613d9f6020935f03613b74565b604051938491602d60f81b828401528051918291018484015e81015f838201520301601f198101835282612736565b612ada90613b74565b8015613e0f5761177081029081046117700361095257613df690612fa1565b60128111613e0f5760098110613e095790565b50600990565b50601290565b60405170209d189d30b8bab09d119818333333330560791b6020820190815270211d191d31363ab29d119818181833330560791b603183015272219d199d31b7b33332b29d119b331a32999b8560691b604283015271221d1a1d3232b734b69d119b1b1c9cb3330560711b605583015274229d1a9d32b3b3b9b432b6361d11b333331cb2998560591b606783015273231d1b1d333ab1b439b4b09d11b333181833330560611b607c83015271239d1b9d33b932b2b71d1198181c1818180560711b609083015271241d1c1d3437b732bc9d11b33331b198180560711b60a283015272249d1c9d34b73234b3b79d119a3118181c190560691b60b48301527f4a3a31303a6a61646520677265656e3a233030613836620a000000000000000060c783015272259d18989d35b430b5b49d11b199b1181c988560691b60df83015271261d18991d3634b6b29d119818333318180560711b60f283015273269d18999d36b0b937b7b71d119c18181818180560611b61010483015271271d189a1d3730bb3c9d11983098989b990560711b61011883015273279d189a9d37b930b733b29d11b333309a98180560611b61012a83015271281d189b1d3834b7359d11b33330b0b2320560711b61013e8301527f513a31373a717569636b73696c7665723a236136613661360a0000000000000061015083015270291d189c1d3932b21d11b333181818180560791b61016983015273299d189c9d39b0b636b7b71d11b3309c181b990560611b61017a830152712a1d19181d3a32b0b61d1198181c181c180560711b61018e8301527f553a32313a756c7472616d6172696e653a233535333366660a000000000000006101a0830152732b1d19191d3b34b7b632ba1d11b0b09a9ab3330560611b6101b9830152722b9d19199d3bb432b0ba1d11b31ab232b1198560691b6101cd830152712c1d191a1d3c3930bc9d11b13131b1b1b18560711b6101e0830152732c9d191a9d3cb2b63637bb9d11b333333318180560611b6101f28301527f5a3a32363a7a6f6d62696520677261793a2337373838373700000000000000006102068301526101fe82529061413461021e82612736565b51902090565b9061293060016021602094604051958691601160f91b828401528051918291018484015e8101601160f91b838201520301601e19810185520183612736565b6001600160601b03199060601b1660405190614196606083612736565b602a8252602082016040368237825115612c225760309053815160011015612c2257607860218301535f5b601481106141ce57505090565b81811a9060ff8260041c166010811015612c22578160011b928284046002148315171561095257836002018060021161095257600f926f181899199a1a9b1b9c1cb0b131b232b360811b901a906142259088612c11565b5316916010831015612c225760030180600311610952576001926f181899199a1a9b1b9c1cb0b131b232b360811b901a906142609086612c11565b53016141c1565b5f9190825b815184101561438b5761427f8483612c11565b5160f81c601160f91b6001600160f81b031961429b8786612c11565b511614801561436a575b8015614349575b8015614328575b8015614307575b156142d757506002810180911161095257600190935b019261426c565b602011156142f3576006810180911161095257600190936142d0565b6001810180911161095257600190936142d0565b50600960f81b6001600160f81b03196143208786612c11565b5116146142ba565b50600d60f81b6001600160f81b03196143418786612c11565b5116146142b3565b50600560f91b6001600160f81b03196143628786612c11565b5116146142ac565b50601760fa1b6001600160f81b03196143838786612c11565b5116146142a5565b614396919350612c36565b5f925f5b8151811015614603576143ad8183612c11565b5160f881901c90601160f91b6001600160f81b03196143cc8587612c11565b511603614404575050600190605c6143ed6143e688612c68565b9786612c11565b5360226143fc6143e688612c68565b535b0161439a565b601760fa1b6001600160f81b031961441c8587612c11565b51160361444b575050600190605c6144366143e688612c68565b53605c6144456143e688612c68565b536143fe565b600560f91b6001600160f81b03196144638587612c11565b51160361448c575050600190605c61447d6143e688612c68565b53606e6144456143e688612c68565b600d60f81b6001600160f81b03196144a48587612c11565b5116036144cd575050600190605c6144be6143e688612c68565b5360726144456143e688612c68565b600960f81b6001600160f81b03196144e58587612c11565b51160361450e575050600190605c6144ff6143e688612c68565b5360746144456143e688612c68565b602082939792105f146145d157605c61453061452984612c68565b9387612c11565b53607561453f61452984612c68565b53603061454e61452984612c68565b53603061455d61452984612c68565b5360fc1c916010831015612c22578161459861457a600f94612c68565b946f181899199a1a9b1b9c1cb0b131b232b360811b901a9187612c11565b5316946010861015612c2257816144456145b3600194612c68565b976f181899199a1a9b1b9c1cb0b131b232b360811b901a9186612c11565b5094600191506001600160f81b03196145ea8285612c11565b5116956144456145f982612c68565b975f1a9186612c11565b5090925050565b60ff16600181146150c757600281146150645760038114614fff5760048114614f9b5760058114614f345760068114614ece5760078114614e6b5760088114614e075760098114614da257600a8114614d3a57600b8114614cd657600c8114614c7357600d8114614c0e57600e8114614bab57600f8114614b465760108114614ae35760118114614a795760128114614a1757601381146149b2576014811461494f57601581146148e55760168114614880576017811461481c57601881146147b9576019811461475457601a146146eb57630ca627ff60e01b5f5260045ffd5b60409081516146fa8382612736565b60018152602d60f91b602082015291601a9181516147188382612736565b600b81526a7a6f6d626965206772617960a81b60208201529161473d81519182612736565b60078152662337373838373760c81b602082015290565b5060409081516147648382612736565b60018152605960f81b60208201529160199181516147828382612736565b600681526579656c6c6f7760d01b6020820152916147a281519182612736565b60078152660236666666630360cc1b602082015290565b5060409081516147c98382612736565b60018152600b60fb1b60208201529160189181516147e78382612736565b60048152637872617960e01b60208201529161480581519182612736565b60078152662362626363636360c81b602082015290565b50604090815161482c8382612736565b60018152605760f81b602082015291601791815161484a8382612736565b60058152641dda19585d60da1b60208201529161486981519182612736565b60078152662366356465623360c81b602082015290565b5060409081516148908382612736565b60018152602b60f91b60208201529160169181516148ae8382612736565b60068152651d9a5bdb195d60d21b6020820152916148ce81519182612736565b600781526611b0b09a9ab33360c91b602082015290565b5060409081516148f58382612736565b60018152605560f81b60208201529160159181516149138382612736565b600b81526a756c7472616d6172696e6560a81b60208201529161493881519182612736565b6007815266119a9a9999b33360c91b602082015290565b50604090815161495f8382612736565b60018152601560fa1b602082015291601491815161497d8382612736565b60048152631d19585b60e21b60208201529161499b81519182612736565b60078152660233030383038360cc1b602082015290565b5060409081516149c28382612736565b60018152605360f81b60208201529160139181516149e08382612736565b600681526539b0b636b7b760d11b602082015291614a0081519182612736565b600781526611b3309c181b9960c91b602082015290565b506040908151614a278382612736565b60018152602960f91b6020820152916012918151614a458382612736565b60038152621c995960ea1b602082015291614a6281519182612736565b60078152660236666303030360cc1b602082015290565b506040908151614a898382612736565b60018152605160f81b6020820152916011918151614aa78382612736565b600b81526a38bab4b1b5b9b4b63b32b960a91b602082015291614acc81519182612736565b600781526611b09b309b309b60c91b602082015290565b506040908151614af38382612736565b60018152600560fc1b6020820152916010918151614b118382612736565b600481526370696e6b60e01b602082015291614b2f81519182612736565b600781526608d9999858591960ca1b602082015290565b506040908151614b568382612736565b60018152604f60f81b602082015291600f918151614b748382612736565b60068152656f72616e676560d01b602082015291614b9481519182612736565b60078152660236666613530360cc1b602082015290565b506040908151614bbb8382612736565b60018152602760f91b602082015291600e918151614bd98382612736565b60048152636e61767960e01b602082015291614bf781519182612736565b600781526611983098989b9960c91b602082015290565b506040908151614c1e8382612736565b60018152604d60f81b602082015291600d918151614c3c8382612736565b600681526536b0b937b7b760d11b602082015291614c5c81519182612736565b60078152660233830303030360cc1b602082015290565b506040908151614c838382612736565b60018152601360fa1b602082015291600c918151614ca18382612736565b60048152636c696d6560e01b602082015291614cbf81519182612736565b60078152660233030666630360cc1b602082015290565b506040908151614ce68382612736565b60018152604b60f81b602082015291600b918151614d048382612736565b60058152646b68616b6960d81b602082015291614d2381519182612736565b60078152662363336230393160c81b602082015290565b506040908151614d4a8382612736565b60018152602560f91b602082015291600a918151614d688382612736565b838152693530b2329033b932b2b760b11b602082015291614d8b81519182612736565b6007815266119818309c1b3160c91b602082015290565b506040908151614db28382612736565b60018152604960f81b6020820152916009918151614dd08382612736565b6006815265696e6469676f60d01b602082015291614df081519182612736565b6007815266119a3118181c1960c91b602082015290565b506040908151614e178382612736565b60018152600960fb1b6020820152916008918151614e358382612736565b6005815264686f6e657960d81b602082015291614e5481519182612736565b60078152660236666636330360cc1b602082015290565b506040908151614e7b8382612736565b60018152604760f81b6020820152916007918151614e998382612736565b600581526433b932b2b760d91b602082015291614eb881519182612736565b838152660233030383030360cc1b602082015290565b506040908151614ede8382612736565b60018152602360f91b6020820152916006918151614efc8382612736565b60078152666675636873696160c81b602082015291614f1d81519182612736565b600781526611b3331818333360c91b602082015290565b506040908151614f448382612736565b60018152604560f81b6020820152916005918151614f628382612736565b60088152671959d9dcda195b1b60c21b602082015291614f8481519182612736565b60078152662366666639653360c81b602082015290565b506040908151614fab8382612736565b60018152601160fa1b6020820152916004918151614fc98382612736565b600581526464656e696d60d81b602082015291614fe881519182612736565b6007815266119b1b1c9cb33360c91b602082015290565b50604090815161500f8382612736565b60018152604360f81b602082015291600391815161502d8382612736565b6006815265636f6666656560d01b60208201529161504d81519182612736565b60078152662336663465333760c81b602082015290565b5060409081516150748382612736565b60018152602160f91b60208201529160029181516150928382612736565b6004815263626c756560e01b6020820152916150b081519182612736565b60078152661198181818333360c91b602082015290565b5060409081516150d78382612736565b60018152604160f81b60208201529160019181516150f58382612736565b60048152636171756160e01b60208201529161511381519182612736565b60078152661198183333333360c91b60208201529056","linkReferences":{}},"methodIdentifiers":{"ERR_EMPTY_TEXT()":"64b38f4b","ERR_INVALID_CHARACTER()":"bc64d934","ERR_NONE()":"51ac7bb3","ERR_NOT_CANONICAL()":"7093d4c8","ERR_RAW_RETURN_TOO_LONG()":"ed8b3ed0","ERR_TEXT_TOO_LONG()":"591f0b9e","MAX_PROVENANCE_BYTES()":"ed98065b","MAX_RAW_RETURN_BYTES()":"cda6153a","MAX_TEXT_BYTES()":"0effdd26","PATH_MOVEMENT_THOUGHT()":"a0901b0b","approve(address,uint256)":"095ea7b3","authorOf(uint256)":"571733ab","balanceOf(address)":"70a08231","colorFont()":"42bb0336","colorFontData()":"c6cc9e6f","colorFontGlyph(uint8)":"2309c76d","colorFontGlyphOf(bytes1)":"a5f9c799","colorFontHash()":"2d53d7de","colorFontId()":"a61ca744","colorFontLength()":"0fe340d2","colorFontVersion()":"df495573","getApproved(uint256)":"081812fc","isApprovedForAll(address,address)":"e985e9c5","isCanonicalText(string)":"55c29be1","isThoughtMinted(bytes32)":"0bb534b7","mint(string,uint256,bytes32,bytes32,bytes32,string,uint256,bytes)":"f7291e0b","name()":"06fdde03","normalizeText(string)":"122daf08","normalizeThought(string)":"06b16661","ownerOf(uint256)":"6352211e","pathIdOf(uint256)":"f990d58d","pathNft()":"540795a4","pathSerialOf(uint256)":"f4105f35","previewText(string)":"d2a6790a","previewWork(string)":"c159a6d9","promptHashOf(uint256)":"9de7bab9","provenanceHashOf(uint256)":"f25f3179","provenanceOf(uint256)":"c0fe387b","rawTextOf(uint256)":"0f83b426","recordOf(uint256)":"55d742e4","renderThoughtSvg(string)":"5f0f16c4","renderTokenSvg(uint256)":"d6562b9e","safeTransferFrom(address,address,uint256)":"42842e0e","safeTransferFrom(address,address,uint256,bytes)":"b88d4fde","setApprovalForAll(address,bool)":"a22cb465","supportsInterface(bytes4)":"01ffc9a7","svgOf(uint256)":"e2ae5f13","symbol()":"95d89b41","textHashOf(string)":"b9d29eaf","textHashOf(uint256)":"366c249b","thoughtSpecOf(uint256)":"922e05e6","thoughtSpecRegistry()":"2c406255","thoughtText(uint256)":"21cc47a1","tokenOfTextHash(bytes32)":"44c6a2aa","tokenOfThought(bytes32)":"ba46895c","tokenURI(uint256)":"c87b56dd","totalSupply()":"18160ddd","transferFrom(address,address,uint256)":"23b872dd"},"id":2}