{"abi":[{"type":"function","name":"data","inputs":[],"outputs":[{"name":"","type":"string","internalType":"string"}],"stateMutability":"pure"},{"type":"function","name":"glyph","inputs":[{"name":"index","type":"uint8","internalType":"uint8"}],"outputs":[{"name":"letter","type":"string","internalType":"string"},{"name":"ordinal","type":"uint8","internalType":"uint8"},{"name":"aliasTerm","type":"string","internalType":"string"},{"name":"hexColor","type":"string","internalType":"string"}],"stateMutability":"pure"},{"type":"function","name":"glyphOf","inputs":[{"name":"letter_","type":"bytes1","internalType":"bytes1"}],"outputs":[{"name":"ordinal","type":"uint8","internalType":"uint8"},{"name":"aliasTerm","type":"string","internalType":"string"},{"name":"hexColor","type":"string","internalType":"string"}],"stateMutability":"pure"},{"type":"function","name":"hash","inputs":[],"outputs":[{"name":"","type":"bytes32","internalType":"bytes32"}],"stateMutability":"pure"},{"type":"function","name":"id","inputs":[],"outputs":[{"name":"","type":"string","internalType":"string"}],"stateMutability":"pure"},{"type":"function","name":"length","inputs":[],"outputs":[{"name":"","type":"uint8","internalType":"uint8"}],"stateMutability":"pure"},{"type":"function","name":"version","inputs":[],"outputs":[{"name":"","type":"string","internalType":"string"}],"stateMutability":"pure"},{"type":"error","name":"InvalidColorFontIndex","inputs":[]},{"type":"error","name":"InvalidColorFontLetter","inputs":[]}],"bytecode":{"object":"0x6080806040523460155761117b908161001a8239f35b5f80fdfe60806040526004361015610011575f80fd5b5f3560e01c806309bd5a601461026c5780631f7b6d321461025157806346831b34146101e557806354fd4d50146101a15780636094e465146100f357806373d4a13a146100c45763af640d0f14610066575f80fd5b346100c0575f3660031901126100c0576100bc6040516100876040826102b8565b6014815273696e7368656c6c2e636f6c6f72666f6e742e763160601b6020820152604051918291602083526020830190610294565b0390f35b5f80fd5b346100c0575f3660031901126100c0576100bc6100df610e5c565b604051918291602083526020830190610294565b346100c05760203660031901126100c0576004356001600160f81b0319811681036100c05760f81c604181108015610197575b61018857603f190160ff8111610174576101666100bc61014760ff936102ee565b9250604094919451958695168552606060208601526060850190610294565b908382036040850152610294565b634e487b7160e01b5f52601160045260245ffd5b636bf16af160e11b5f5260045ffd5b50605a8111610126565b346100c0575f3660031901126100c0576100bc6040516101c26040826102b8565b6002815261763160f01b6020820152604051918291602083526020830190610294565b346100c05760203660031901126100c05760043560ff811681036100c0576102436100bc61021561022f936102ee565b9294919060ff604051978897608089526080890190610294565b921660208701528582036040870152610294565b908382036060850152610294565b346100c0575f3660031901126100c0576020604051601a8152f35b346100c0575f3660031901126100c0576020610286610e5c565b818151910120604051908152f35b805180835260209291819084018484015e5f828201840152601f01601f1916010190565b90601f8019910116810190811067ffffffffffffffff8211176102da57604052565b634e487b7160e01b5f52604160045260245ffd5b60ff1660018114610df65760028114610d905760038114610d285760048114610cc15760058114610c575760068114610bee5760078114610b885760088114610b215760098114610ab957600a8114610a4e57600b81146109e757600c811461098157600d811461091957600e81146108b357600f811461084b57601081146107e55760118114610778576012811461071357601381146106ab576014811461064557601581146105d85760168114610570576017811461050957601881146104a3576019811461043b57601a146103cf57630ca627ff60e01b5f5260045ffd5b6040516103dd6040826102b8565b60018152602d60f91b602082015290601a906040516103fd6040826102b8565b600b81526a7a6f6d626965206772617960a81b6020820152906040516104246040826102b8565b60078152662337373838373760c81b602082015290565b5060405161044a6040826102b8565b60018152605960f81b60208201529060199060405161046a6040826102b8565b600681526579656c6c6f7760d01b60208201529060405161048c6040826102b8565b60078152660236666666630360cc1b602082015290565b506040516104b26040826102b8565b60018152600b60fb1b6020820152906018906040516104d26040826102b8565b60048152637872617960e01b6020820152906040516104f26040826102b8565b60078152662362626363636360c81b602082015290565b506040516105186040826102b8565b60018152605760f81b6020820152906017906040516105386040826102b8565b60058152641dda19585d60da1b6020820152906040516105596040826102b8565b60078152662366356465623360c81b602082015290565b5060405161057f6040826102b8565b60018152602b60f91b60208201529060169060405161059f6040826102b8565b60068152651d9a5bdb195d60d21b6020820152906040516105c16040826102b8565b600781526611b0b09a9ab33360c91b602082015290565b506040516105e76040826102b8565b60018152605560f81b6020820152906015906040516106076040826102b8565b600b81526a756c7472616d6172696e6560a81b60208201529060405161062e6040826102b8565b6007815266119a9a9999b33360c91b602082015290565b506040516106546040826102b8565b60018152601560fa1b6020820152906014906040516106746040826102b8565b60048152631d19585b60e21b6020820152906040516106946040826102b8565b60078152660233030383038360cc1b602082015290565b506040516106ba6040826102b8565b60018152605360f81b6020820152906013906040516106da6040826102b8565b600681526539b0b636b7b760d11b6020820152906040516106fc6040826102b8565b600781526611b3309c181b9960c91b602082015290565b506040516107226040826102b8565b60018152602960f91b6020820152906012906040516107426040826102b8565b60038152621c995960ea1b6020820152906040516107616040826102b8565b60078152660236666303030360cc1b602082015290565b506040516107876040826102b8565b60018152605160f81b6020820152906011906040516107a76040826102b8565b600b81526a38bab4b1b5b9b4b63b32b960a91b6020820152906040516107ce6040826102b8565b600781526611b09b309b309b60c91b602082015290565b506040516107f46040826102b8565b60018152600560fc1b6020820152906010906040516108146040826102b8565b600481526370696e6b60e01b6020820152906040516108346040826102b8565b600781526608d9999858591960ca1b602082015290565b5060405161085a6040826102b8565b60018152604f60f81b602082015290600f9060405161087a6040826102b8565b60068152656f72616e676560d01b60208201529060405161089c6040826102b8565b60078152660236666613530360cc1b602082015290565b506040516108c26040826102b8565b60018152602760f91b602082015290600e906040516108e26040826102b8565b60048152636e61767960e01b6020820152906040516109026040826102b8565b600781526611983098989b9960c91b602082015290565b506040516109286040826102b8565b60018152604d60f81b602082015290600d906040516109486040826102b8565b600681526536b0b937b7b760d11b60208201529060405161096a6040826102b8565b60078152660233830303030360cc1b602082015290565b506040516109906040826102b8565b60018152601360fa1b602082015290600c906040516109b06040826102b8565b60048152636c696d6560e01b6020820152906040516109d06040826102b8565b60078152660233030666630360cc1b602082015290565b506040516109f66040826102b8565b60018152604b60f81b602082015290600b90604051610a166040826102b8565b60058152646b68616b6960d81b602082015290604051610a376040826102b8565b60078152662363336230393160c81b602082015290565b50604051610a5d6040826102b8565b60018152602560f91b602082015290600a90604051610a7d6040826102b8565b828152693530b2329033b932b2b760b11b602082015290604051610aa26040826102b8565b6007815266119818309c1b3160c91b602082015290565b50604051610ac86040826102b8565b60018152604960f81b602082015290600990604051610ae86040826102b8565b6006815265696e6469676f60d01b602082015290604051610b0a6040826102b8565b6007815266119a3118181c1960c91b602082015290565b50604051610b306040826102b8565b60018152600960fb1b602082015290600890604051610b506040826102b8565b6005815264686f6e657960d81b602082015290604051610b716040826102b8565b60078152660236666636330360cc1b602082015290565b50604051610b976040826102b8565b60018152604760f81b602082015290600790604051610bb76040826102b8565b600581526433b932b2b760d91b602082015290604051610bd86040826102b8565b838152660233030383030360cc1b602082015290565b50604051610bfd6040826102b8565b60018152602360f91b602082015290600690604051610c1d6040826102b8565b60078152666675636873696160c81b602082015290604051610c406040826102b8565b600781526611b3331818333360c91b602082015290565b50604051610c666040826102b8565b60018152604560f81b602082015290600590604051610c866040826102b8565b60088152671959d9dcda195b1b60c21b602082015290604051610caa6040826102b8565b60078152662366666639653360c81b602082015290565b50604051610cd06040826102b8565b60018152601160fa1b602082015290600490604051610cf06040826102b8565b600581526464656e696d60d81b602082015290604051610d116040826102b8565b6007815266119b1b1c9cb33360c91b602082015290565b50604051610d376040826102b8565b60018152604360f81b602082015290600390604051610d576040826102b8565b6006815265636f6666656560d01b602082015290604051610d796040826102b8565b60078152662336663465333760c81b602082015290565b50604051610d9f6040826102b8565b60018152602160f91b602082015290600290604051610dbf6040826102b8565b6004815263626c756560e01b602082015290604051610ddf6040826102b8565b60078152661198181818333360c91b602082015290565b50604051610e056040826102b8565b60018152604160f81b602082015290600190604051610e256040826102b8565b60048152636171756160e01b602082015290604051610e456040826102b8565b60078152661198183333333360c91b602082015290565b60405170209d189d30b8bab09d119818333333330560791b602082015270211d191d31363ab29d119818181833330560791b603182015272219d199d31b7b33332b29d119b331a32999b8560691b604282015271221d1a1d3232b734b69d119b1b1c9cb3330560711b605582015274229d1a9d32b3b3b9b432b6361d11b333331cb2998560591b606782015273231d1b1d333ab1b439b4b09d11b333181833330560611b607c82015271239d1b9d33b932b2b71d1198181c1818180560711b609082015271241d1c1d3437b732bc9d11b33331b198180560711b60a282015272249d1c9d34b73234b3b79d119a3118181c190560691b60b48201527f4a3a31303a6a61646520677265656e3a233030613836620a000000000000000060c782015272259d18989d35b430b5b49d11b199b1181c988560691b60df82015271261d18991d3634b6b29d119818333318180560711b60f282015273269d18999d36b0b937b7b71d119c18181818180560611b61010482015271271d189a1d3730bb3c9d11983098989b990560711b61011882015273279d189a9d37b930b733b29d11b333309a98180560611b61012a82015271281d189b1d3834b7359d11b33330b0b2320560711b61013e8201527f513a31373a717569636b73696c7665723a236136613661360a0000000000000061015082015270291d189c1d3932b21d11b333181818180560791b61016982015273299d189c9d39b0b636b7b71d11b3309c181b990560611b61017a820152712a1d19181d3a32b0b61d1198181c181c180560711b61018e8201527f553a32313a756c7472616d6172696e653a233535333366660a000000000000006101a0820152732b1d19191d3b34b7b632ba1d11b0b09a9ab3330560611b6101b9820152722b9d19199d3bb432b0ba1d11b31ab232b1198560691b6101cd820152712c1d191a1d3c3930bc9d11b13131b1b1b18560711b6101e0820152732c9d191a9d3cb2b63637bb9d11b333333318180560611b6101f28201527f5a3a32363a7a6f6d62696520677261793a2337373838373700000000000000006102068201526101fe81529061117961021e836102b8565b56","linkReferences":{}},"methodIdentifiers":{"data()":"73d4a13a","glyph(uint8)":"46831b34","glyphOf(bytes1)":"6094e465","hash()":"09bd5a60","id()":"af640d0f","length()":"1f7b6d32","version()":"54fd4d50"},"id":0}